:1000000003308A00EB2B0000D4326D386539613A39
:100010007539611D253200004300C330EC32E630F3
:10002000633A6F39A020633A693B61326F00D43282
:100030006D386539613A75396110CE37F2366136FF
:100040000001D6326E3A693661326F39A020633AC8
:10005000693B61326F002C30840083130008031960
:100060003F280130F800F701F70B3428F80B33284C
:100070004A30F700F70B3A283D28800B312808005A
:10008000330EF039F7000F300805770488000000C0
:1000900008144A28081008000808F700080E0F394D
:1000A000F8000800831608108810081183128810C1
:1000B0000F3083160805F0388800831208150000F9
:1000C000081400004C207808B30008100000081441
:1000D00000004C207808B20008100F308316080585
:1000E00088008312330EF700F030F70577083204EA
:1000F000F8007808B200B21B5828301C881030185D
:1001000088140000081100000810310EB2000F30F2
:10011000B2053208B300402031080F39B200B300F5
:10012000402008002830A5000C30A6000130A700B0
:100130000630A8000810881008110F308316080533
:1001400088000810881008110F308312AC002B2093
:100150000130A4002408033C031CB6280330B3007C
:1001600040200530AC002B20A40AAA280230B3009E
:1001700040200530AC002B20A4012408033C031CC4
:10018000CD2825302407840083130008A900B0017E
:100190002908B1005220A40ABD288A110A121A2C7B
:1001A0002D0BD328D6284030AE00D728AE01013021
:1001B0002C02AE072E088038AF00B0012F08B10026
:1001C000522008008E30F7002508F8002408F900B6
:1001D000FA01F808031DF6287908F800F90108303B
:1001E000F702F808031DF628F701FE280310F81B94
:1001F000FD28F90DF80DF703F628F8138A110A12F5
:10020000312C280803197129B0002C080319712911
:10021000B007031812297F30B002031C712903199B
:10022000712916298130B007031871293008F700A9
:10023000F801F901FA012908B400B4172A08B3003B
:100240002B08B2001830B000B101321C3F292F0832
:10025000FA07031C3129F90A031D3129F80A031989
:10026000B1172E08F907031C3829F80A0319B1172A
:100270002D08AA00AA172A08F8070318B117B10D0C
:10028000F80CF90CFA0CB40CB30CB20C0310B00B54
:1002900024290130F70703187129F81B5629B40DDA
:1002A000FA0DF90DF80DF70303197129B41F672929
:1002B000FA0A031D6729F90A031D6729F80A031DB5
:1002C0006729F80CF90CFA0CF70A031971292908A7
:1002D000B1002D08B106B11F6F29F8177529F81361
:1002E0007529F701F801F901FA0108002808031936
:1002F0003B2AB4002C0803193B2AB402031C8529AD
:100300007F30B40703183B2A8B298130B402031CC9
:100310003B2A03193B2A3408F700F801F901FA01D6
:10032000B3012908B200B2172A08B1002B08B000A7
:100330001930B4002F08B0020318AE290130B10201
:100340000318AE29B2020318AE29B3020318AE296E
:10035000B30AB20AB10A2F08B007E0292E08B10289
:100360000318C9290130B2020318C929B3020318BE
:10037000C929B30AB20A2E08B1072F08B007031C17
:10038000E029B10A031DE029B20A031DE029B30ADE
:10039000E0292D088038B2020318DF290130B302AA
:1003A0000318DF29B30A2D088038B2072E08B107D9
:1003B000031CBD29B20A031DBD29B30ABD297A1445
:1003C000B40BE329EE290310B00DB10DB20DB30D3E
:1003D0000310FA0DF90DF80DB50D9A29351CF62903
:1003E0000310F80CF90CFA0CB50CF929F7030319F2
:1003F0003B2AB51B222A0310B00DB10DB20DB30D6F
:100400002F08B00203180E2A0130B10203180E2A79
:10041000B20203180E2AB302031C312A2E08B102BD
:100420000318192A0130B2020318192AB302031C57
:10043000312A2D088038B2020318222A0130B30273
:10044000031C312AFA0A031D312AF90A031D312A35
:10045000F80A031D312AF70A03193B2AF80CF90C94
:10046000FA0C2908B4002D08B406B41F392AF8176D
:100470003F2AF8133F2AF701F801F901FA018A111E
:100480000A125E2C8E30F7002408F7022508F900C6
:100490002608F800F917F7080319592A0310F90874
:1004A000031D552AF8080319592AF90CF80CF70B03
:1004B0004E2AA51F602AF809F909F80A0319F90A52
:1004C0008A110A128B2C2B08073A0319712A0B3A4E
:1004D0000319762A063A03197E2A023A0319842A56
:1004E000892A0130AC00AD00D0208E2AB001013045
:1004F000B10052200230AC002B208E2A0130AC001B
:100500000230AD00D0208E2AB0011030B100522050
:100510008E2A0130B0002B08B100522008000B08D1
:10052000A6008B13831603178C170C140000000011
:1005300083120313A61B8B170318C62A03170C0874
:100540007F390313A60003170D080313A700031731
:100550000F080313A8002608AB006322270803171F
:100560008D000313280803178F0003130B08A9003D
:100570008B13831603178C170C14000000008312D2
:100580000313A91B8B17A50BC62AE52A03170C0D0D
:100590000E0D7F390313A60003170D080313A700E0
:1005A00003170F080313A8002608AB0063222708CF
:1005B00003178D000313280803178F008D0A0319F2
:1005C0008F0A03100313A50B8F2A8A110A12972C86
:1005D0002C08F8012B020318F02A2B08F700FC2A3C
:1005E000F7010830AD00AB0DF70D2C0877020318AA
:1005F000F700F80DAD0BF32A08002030261E30302E
:10060000A7002508F700A51F0D2BF709F70A7708A3
:10061000A5002D30A700A61726142508AB006430CE
:10062000AC00E8227708A50030307807A80025083C
:10063000AB000A30AC00E82230307707AA00303037
:100640007807A9002708F7003030280203192C2B5F
:10065000A614A61B2615402B2708A8002030A700AB
:10066000303029020319382B2614A61BA614402B60
:10067000031D2614031D402B2808A9002030A800C4
:100680002619472BA6184A2B26184D2B502B270826
:10069000AB0063222808AB0063222908AB00632269
:1006A0002A08AB0063228A110A129C2C0B08A400B2
:1006B0008B13831603178C170C1400000000831291
:1006C0000313A41B8B1703170C087F390319AA2BDC
:1006D0000313A40003170D080313A50003170F0845
:1006E0000313A6002408AB006322250803178D001E
:1006F0000313260803178F0003130B08A7008B139F
:10070000831603178C170C140000000083120313C8
:10071000A71B8B1703170C0D0E0D7F390319AA2B7E
:100720000313A40003170D080313A50003170F08F4
:100730000313A6002408AB006322250803178D00CD
:100740000313260803178F008D0A03198F0A03135A
:10075000562B0317031308002508AC002908AC0624
:10076000AC1FB72B03110310A51B0314EA2B25089C
:10077000AC002808AD002408AD020319C52BAC1F3E
:10078000EA2B0308013A8300EA2B2908AD0025086B
:10079000AD020319D12BAC1FEA2B0308013A8300E9
:1007A000EA2B2A08AD002608AD020319DD2BAC1F89
:1007B000EA2B0308013A8300EA2B2B08AD00270837
:1007C000AD020319E92BAC1FEA2B0308013A8300A1
:1007D000EA2B0310080003081F39830083161F1437
:1007E0009F141F159F1107309C0083131F109F1427
:1007F0001F159F151F1383121F179F1783169F170F
:1008000083121F140830F7008101813084008313A4
:100810000008C0390738800064000008C739F7199C
:10082000C039770480000030F8001F08C739780409
:100830009F0092280130AC00AD00D0200230A4000F
:10084000AF30AC002B20A40B202C1F151F19262C19
:100850001E08FA0083161E088312A4001E08A500B5
:10086000E2287A08A7007908A6007808A50077088A
:10087000A4007A08AB007908AA007808A9007708D4
:10088000A800AF01AE012030AD008130AC000121E5
:100890007A08A7007908A6007808A5007708A400C0
:1008A0007A08AB007908AA007808A9007708A800A0
:1008B000AF01AE01AD018930AC0076297A08A700FE
:1008C0007908A6007808A5007708A4007A08AB008C
:1008D0007908AA007808A9007708A800AF01AE013E
:1008E0004830AD008530AC0001217A08A3007908BA
:1008F000A2007808A1007708A0000330AC00013006
:10090000AD00D0202308A7002208A6002108A500DA
:100910002008A400422A7808A400043003178D00A0
:1009200000308F0003100C300313A5008F2A240819
:10093000A5001830A600FD2ADF30AB0063220C3082
:1009400003178D0000308F0003135623C830AC000E
:100950002B202308A7002208A6002108A5002008B4
:10096000A400AB01AA012030A9008330A800AC2369
:10097000031CD12C83168510831285148316051150
:10098000831205110230AC00AD00D0200D300317EA
:100990008D0000308F0003135623C830AC002B208D
:1009A000242DA701A6012030A5008330A400230830
:1009B000AB002208AA002108A9002008A800AC2347
:1009C0000318E42C031D0E2D2308A7002208A600FF
:1009D0002108A5002008A400AB01AA014830A90005
:1009E0008330A800AC230318F72C031D0E2D8316AB
:1009F00085108312851083160511831205110230AC
:100A0000AC00AD00D020173003178D0000308F00F0
:100A100003135623C830AC002B20242D83168510D9
:100A20008312851083160511831205150230AC0060
:100A3000AD00D020213003178D0000308F0003134C
:0C0A40005623C830AC002B20252C63008E
:02400E00733FFE
:00000001FF
;PIC16F877A
;CRC=2A35  CREATED="26-mar.-24 02:10"
